{
  "_format": "hh-sol-artifact-1",
  "contractName": "RiddleFactory",
  "sourceName": "contracts/RiddleFactory.sol",
  "abi": [
    {
      "inputs": [],
      "stateMutability": "nonpayable",
      "type": "constructor"
    },
    {
      "inputs": [
        {
          "internalType": "address",
          "name": "owner",
          "type": "address"
        }
      ],
      "name": "OwnableInvalidOwner",
      "type": "error"
    },
    {
      "inputs": [
        {
          "internalType": "address",
          "name": "account",
          "type": "address"
        }
      ],
      "name": "OwnableUnauthorizedAccount",
      "type": "error"
    },
    {
      "anonymous": false,
      "inputs": [
        {
          "indexed": true,
          "internalType": "address",
          "name": "previousOwner",
          "type": "address"
        },
        {
          "indexed": true,
          "internalType": "address",
          "name": "newOwner",
          "type": "address"
        }
      ],
      "name": "OwnershipTransferred",
      "type": "event"
    },
    {
      "anonymous": false,
      "inputs": [
        {
          "indexed": true,
          "internalType": "address",
          "name": "riddleAddress",
          "type": "address"
        },
        {
          "indexed": false,
          "internalType": "string",
          "name": "riddleText",
          "type": "string"
        },
        {
          "indexed": false,
          "internalType": "address",
          "name": "creator",
          "type": "address"
        }
      ],
      "name": "RiddleCreated",
      "type": "event"
    },
    {
      "inputs": [
        {
          "internalType": "address",
          "name": "_riddleAddress",
          "type": "address"
        }
      ],
      "name": "addRewardToRiddle",
      "outputs": [],
      "stateMutability": "payable",
      "type": "function"
    },
    {
      "inputs": [
        {
          "internalType": "string",
          "name": "_riddleText",
          "type": "string"
        },
        {
          "internalType": "string",
          "name": "_solution",
          "type": "string"
        }
      ],
      "name": "createRiddle",
      "outputs": [
        {
          "internalType": "address",
          "name": "",
          "type": "address"
        }
      ],
      "stateMutability": "nonpayable",
      "type": "function"
    },
    {
      "inputs": [],
      "name": "getAllRiddles",
      "outputs": [
        {
          "internalType": "address[]",
          "name": "",
          "type": "address[]"
        }
      ],
      "stateMutability": "view",
      "type": "function"
    },
    {
      "inputs": [],
      "name": "getRiddleCount",
      "outputs": [
        {
          "internalType": "uint256",
          "name": "",
          "type": "uint256"
        }
      ],
      "stateMutability": "view",
      "type": "function"
    },
    {
      "inputs": [],
      "name": "owner",
      "outputs": [
        {
          "internalType": "address",
          "name": "",
          "type": "address"
        }
      ],
      "stateMutability": "view",
      "type": "function"
    },
    {
      "inputs": [],
      "name": "renounceOwnership",
      "outputs": [],
      "stateMutability": "nonpayable",
      "type": "function"
    },
    {
      "inputs": [
        {
          "internalType": "address",
          "name": "_riddleAddress",
          "type": "address"
        }
      ],
      "name": "riddleExists",
      "outputs": [
        {
          "internalType": "bool",
          "name": "",
          "type": "bool"
        }
      ],
      "stateMutability": "view",
      "type": "function"
    },
    {
      "inputs": [
        {
          "internalType": "address",
          "name": "",
          "type": "address"
        }
      ],
      "name": "riddleInfo",
      "outputs": [
        {
          "internalType": "string",
          "name": "riddleText",
          "type": "string"
        },
        {
          "internalType": "uint256",
          "name": "reward",
          "type": "uint256"
        },
        {
          "internalType": "bool",
          "name": "isSolved",
          "type": "bool"
        },
        {
          "internalType": "address",
          "name": "solver",
          "type": "address"
        }
      ],
      "stateMutability": "view",
      "type": "function"
    },
    {
      "inputs": [
        {
          "internalType": "uint256",
          "name": "",
          "type": "uint256"
        }
      ],
      "name": "riddles",
      "outputs": [
        {
          "internalType": "address",
          "name": "",
          "type": "address"
        }
      ],
      "stateMutability": "view",
      "type": "function"
    },
    {
      "inputs": [
        {
          "internalType": "address",
          "name": "newOwner",
          "type": "address"
        }
      ],
      "name": "transferOwnership",
      "outputs": [],
      "stateMutability": "nonpayable",
      "type": "function"
    },
    {
      "inputs": [
        {
          "internalType": "address",
          "name": "_riddleAddress",
          "type": "address"
        }
      ],
      "name": "updateRiddleInfo",
      "outputs": [],
      "stateMutability": "nonpayable",
      "type": "function"
    }
  ],
  "bytecode": "0x60806040523480156200001157600080fd5b5033600073ffffffffffffffffffffffffffffffffffffffff168173ffffffffffffffffffffffffffffffffffffffff1603620000885760006040517f1e4fbdf70000000000000000000000000000000000000000000000000000000081526004016200007f9190620001a9565b60405180910390fd5b6200009981620000a060201b60201c565b50620001c6565b60008060009054906101000a900473ffffffffffffffffffffffffffffffffffffffff169050816000806101000a81548173ffffffffffffffffffffffffffffffffffffffff021916908373ffffffffffffffffffffffffffffffffffffffff1602179055508173ffffffffffffffffffffffffffffffffffffffff168173ffffffffffffffffffffffffffffffffffffffff167f8be0079c531659141344cd1fd0a4f28419497f9722a3daafe3b4186f6b6457e060405160405180910390a35050565b600073ffffffffffffffffffffffffffffffffffffffff82169050919050565b6000620001918262000164565b9050919050565b620001a38162000184565b82525050565b6000602082019050620001c0600083018462000198565b92915050565b61309780620001d66000396000f3fe608060405260043610620000aa5760003560e01c806395051775116200006d5780639505177514620001b1578063a044829914620001df578063a544ece314620001ff578063cf4cd0a81462000243578063eb4143c21462000273578063f2fde38b14620002ba57620000aa565b80632e920dfc14620000af57806347099af214620000f35780634815717f1462000123578063715018a614620001675780638da5cb5b1462000181575b600080fd5b348015620000bc57600080fd5b50620000db6004803603810190620000d5919062000f2c565b620002e8565b604051620000ea919062000ff6565b60405180910390f35b3480156200010057600080fd5b506200010b62000524565b6040516200011a91906200102e565b60405180910390f35b3480156200013057600080fd5b506200014f60048036038101906200014991906200107c565b62000531565b6040516200015e9190620010cb565b60405180910390f35b3480156200017457600080fd5b506200017f620005e8565b005b3480156200018e57600080fd5b506200019962000600565b604051620001a8919062000ff6565b60405180910390f35b348015620001be57600080fd5b50620001dd6004803603810190620001d791906200107c565b62000629565b005b620001fd6004803603810190620001f791906200107c565b620008f4565b005b3480156200020c57600080fd5b506200022b600480360381019062000225919062001119565b62000a02565b6040516200023a919062000ff6565b60405180910390f35b3480156200025057600080fd5b506200025b62000a42565b6040516200026a919062001219565b60405180910390f35b3480156200028057600080fd5b506200029f60048036038101906200029991906200107c565b62000ad2565b604051620002b19493929190620012c6565b60405180910390f35b348015620002c757600080fd5b50620002e66004803603810190620002e091906200107c565b62000bbf565b005b60008082604051602001620002fe91906200135c565b6040516020818303038152906040528051906020012090506000848233604051620003299062000da8565b620003379392919062001390565b604051809103906000f08015801562000354573d6000803e3d6000fd5b50905060008190506001819080600181540180825580915050600190039060005260206000200160009091909190916101000a81548173ffffffffffffffffffffffffffffffffffffffff021916908373ffffffffffffffffffffffffffffffffffffffff160217905550604051806080016040528087815260200160008152602001600015158152602001600073ffffffffffffffffffffffffffffffffffffffff16815250600260008373ffffffffffffffffffffffffffffffffffffffff1673ffffffffffffffffffffffffffffffffffffffff16815260200190815260200160002060008201518160000190816200045191906200160a565b506020820151816001015560408201518160020160006101000a81548160ff02191690831515021790555060608201518160020160016101000a81548173ffffffffffffffffffffffffffffffffffffffff021916908373ffffffffffffffffffffffffffffffffffffffff1602179055509050508073ffffffffffffffffffffffffffffffffffffffff167f5cab2933980c97691793c8f6e58a638f6bed7a8503094494c12398f7ba8f914f873360405162000510929190620016f1565b60405180910390a280935050505092915050565b6000600180549050905090565b600080600090505b600180549050811015620005dd578273ffffffffffffffffffffffffffffffffffffffff166001828154811062000575576200057462001725565b5b9060005260206000200160009054906101000a900473ffffffffffffffffffffffffffffffffffffffff1673ffffffffffffffffffffffffffffffffffffffff1603620005c7576001915050620005e3565b8080620005d49062001783565b91505062000539565b50600090505b919050565b620005f262000c4c565b620005fe600062000cdc565b565b60008060009054906101000a900473ffffffffffffffffffffffffffffffffffffffff16905090565b620006348162000531565b62000676576040517f08c379a00000000000000000000000000000000000000000000000000000000081526004016200066d9062001820565b60405180910390fd5b60008190508073ffffffffffffffffffffffffffffffffffffffff166364d98f6e6040518163ffffffff1660e01b8152600401602060405180830381865afa158015620006c7573d6000803e3d6000fd5b505050506040513d601f19601f82011682018060405250810190620006ed919062001873565b600260008473ffffffffffffffffffffffffffffffffffffffff1673ffffffffffffffffffffffffffffffffffffffff16815260200190815260200160002060020160006101000a81548160ff0219169083151502179055508073ffffffffffffffffffffffffffffffffffffffff166349a7a26d6040518163ffffffff1660e01b8152600401602060405180830381865afa15801562000792573d6000803e3d6000fd5b505050506040513d601f19601f82011682018060405250810190620007b89190620018bc565b600260008473ffffffffffffffffffffffffffffffffffffffff1673ffffffffffffffffffffffffffffffffffffffff16815260200190815260200160002060020160016101000a81548173ffffffffffffffffffffffffffffffffffffffff021916908373ffffffffffffffffffffffffffffffffffffffff1602179055508073ffffffffffffffffffffffffffffffffffffffff1663228cb7336040518163ffffffff1660e01b8152600401602060405180830381865afa15801562000884573d6000803e3d6000fd5b505050506040513d601f19601f82011682018060405250810190620008aa919062001905565b600260008473ffffffffffffffffffffffffffffffffffffffff1673ffffffffffffffffffffffffffffffffffffffff168152602001908152602001600020600101819055505050565b620008ff8162000531565b62000941576040517f08c379a0000000000000000000000000000000000000000000000000000000008152600401620009389062001820565b60405180910390fd5b34600260008373ffffffffffffffffffffffffffffffffffffffff1673ffffffffffffffffffffffffffffffffffffffff168152602001908152602001600020600101600082825462000995919062001937565b925050819055508073ffffffffffffffffffffffffffffffffffffffff1663e59a58ee346040518263ffffffff1660e01b81526004016000604051808303818588803b158015620009e557600080fd5b505af1158015620009fa573d6000803e3d6000fd5b505050505050565b6001818154811062000a1357600080fd5b906000526020600020016000915054906101000a900473ffffffffffffffffffffffffffffffffffffffff1681565b6060600180548060200260200160405190810160405280929190818152602001828054801562000ac857602002820191906000526020600020905b8160009054906101000a900473ffffffffffffffffffffffffffffffffffffffff1673ffffffffffffffffffffffffffffffffffffffff168152602001906001019080831162000a7d575b5050505050905090565b600260205280600052604060002060009150905080600001805462000af79062001403565b80601f016020809104026020016040519081016040528092919081815260200182805462000b259062001403565b801562000b765780601f1062000b4a5761010080835404028352916020019162000b76565b820191906000526020600020905b81548152906001019060200180831162000b5857829003601f168201915b5050505050908060010154908060020160009054906101000a900460ff16908060020160019054906101000a900473ffffffffffffffffffffffffffffffffffffffff16905084565b62000bc962000c4c565b600073ffffffffffffffffffffffffffffffffffffffff168173ffffffffffffffffffffffffffffffffffffffff160362000c3e5760006040517f1e4fbdf700000000000000000000000000000000000000000000000000000000815260040162000c35919062000ff6565b60405180910390fd5b62000c498162000cdc565b50565b62000c5662000da0565b73ffffffffffffffffffffffffffffffffffffffff1662000c7662000600565b73ffffffffffffffffffffffffffffffffffffffff161462000cda5762000c9c62000da0565b6040517f118cdaa700000000000000000000000000000000000000000000000000000000815260040162000cd1919062000ff6565b60405180910390fd5b565b60008060009054906101000a900473ffffffffffffffffffffffffffffffffffffffff169050816000806101000a81548173ffffffffffffffffffffffffffffffffffffffff021916908373ffffffffffffffffffffffffffffffffffffffff1602179055508173ffffffffffffffffffffffffffffffffffffffff168173ffffffffffffffffffffffffffffffffffffffff167f8be0079c531659141344cd1fd0a4f28419497f9722a3daafe3b4186f6b6457e060405160405180910390a35050565b600033905090565b6116ef806200197383390190565b6000604051905090565b600080fd5b600080fd5b600080fd5b600080fd5b6000601f19601f8301169050919050565b7f4e487b7100000000000000000000000000000000000000000000000000000000600052604160045260246000fd5b62000e1f8262000dd4565b810181811067ffffffffffffffff8211171562000e415762000e4062000de5565b5b80604052505050565b600062000e5662000db6565b905062000e64828262000e14565b919050565b600067ffffffffffffffff82111562000e875762000e8662000de5565b5b62000e928262000dd4565b9050602081019050919050565b82818337600083830152505050565b600062000ec562000ebf8462000e69565b62000e4a565b90508281526020810184848401111562000ee45762000ee362000dcf565b5b62000ef184828562000e9f565b509392505050565b600082601f83011262000f115762000f1062000dca565b5b813562000f2384826020860162000eae565b91505092915050565b6000806040838503121562000f465762000f4562000dc0565b5b600083013567ffffffffffffffff81111562000f675762000f6662000dc5565b5b62000f758582860162000ef9565b925050602083013567ffffffffffffffff81111562000f995762000f9862000dc5565b5b62000fa78582860162000ef9565b9150509250929050565b600073ffffffffffffffffffffffffffffffffffffffff82169050919050565b600062000fde8262000fb1565b9050919050565b62000ff08162000fd1565b82525050565b60006020820190506200100d600083018462000fe5565b92915050565b6000819050919050565b620010288162001013565b82525050565b60006020820190506200104560008301846200101d565b92915050565b620010568162000fd1565b81146200106257600080fd5b50565b60008135905062001076816200104b565b92915050565b60006020828403121562001095576200109462000dc0565b5b6000620010a58482850162001065565b91505092915050565b60008115159050919050565b620010c581620010ae565b82525050565b6000602082019050620010e26000830184620010ba565b92915050565b620010f38162001013565b8114620010ff57600080fd5b50565b6000813590506200111381620010e8565b92915050565b60006020828403121562001132576200113162000dc0565b5b6000620011428482850162001102565b91505092915050565b600081519050919050565b600082825260208201905092915050565b6000819050602082019050919050565b620011828162000fd1565b82525050565b600062001196838362001177565b60208301905092915050565b6000602082019050919050565b6000620011bc826200114b565b620011c8818562001156565b9350620011d58362001167565b8060005b838110156200120c578151620011f0888262001188565b9750620011fd83620011a2565b925050600181019050620011d9565b5085935050505092915050565b60006020820190508181036000830152620012358184620011af565b905092915050565b600081519050919050565b600082825260208201905092915050565b60005b83811015620012795780820151818401526020810190506200125c565b60008484015250505050565b600062001292826200123d565b6200129e818562001248565b9350620012b081856020860162001259565b620012bb8162000dd4565b840191505092915050565b60006080820190508181036000830152620012e2818762001285565b9050620012f360208301866200101d565b620013026040830185620010ba565b62001311606083018462000fe5565b95945050505050565b600081905092915050565b600062001332826200123d565b6200133e81856200131a565b93506200135081856020860162001259565b80840191505092915050565b60006200136a828462001325565b915081905092915050565b6000819050919050565b6200138a8162001375565b82525050565b60006060820190508181036000830152620013ac818662001285565b9050620013bd60208301856200137f565b620013cc604083018462000fe5565b949350505050565b7f4e487b7100000000000000000000000000000000000000000000000000000000600052602260045260246000fd5b600060028204905060018216806200141c57607f821691505b602082108103620014325762001431620013d4565b5b50919050565b60008190508160005260206000209050919050565b60006020601f8301049050919050565b600082821b905092915050565b6000600883026200149c7fffffffffffffffffffffffffffffffffffffffffffffffffffffffffffffffff826200145d565b620014a886836200145d565b95508019841693508086168417925050509392505050565b6000819050919050565b6000620014eb620014e5620014df8462001013565b620014c0565b62001013565b9050919050565b6000819050919050565b6200150783620014ca565b6200151f6200151682620014f2565b8484546200146a565b825550505050565b600090565b6200153662001527565b62001543818484620014fc565b505050565b5b818110156200156b576200155f6000826200152c565b60018101905062001549565b5050565b601f821115620015ba57620015848162001438565b6200158f846200144d565b810160208510156200159f578190505b620015b7620015ae856200144d565b83018262001548565b50505b505050565b600082821c905092915050565b6000620015df60001984600802620015bf565b1980831691505092915050565b6000620015fa8383620015cc565b9150826002028217905092915050565b62001615826200123d565b67ffffffffffffffff81111562001631576200163062000de5565b5b6200163d825462001403565b6200164a8282856200156f565b600060209050601f8311600181146200168257600084156200166d578287015190505b620016798582620015ec565b865550620016e9565b601f198416620016928662001438565b60005b82811015620016bc5784890151825560018201915060208501945060208101905062001695565b86831015620016dc5784890151620016d8601f891682620015cc565b8355505b6001600288020188555050505b505050505050565b600060408201905081810360008301526200170d818562001285565b90506200171e602083018462000fe5565b9392505050565b7f4e487b7100000000000000000000000000000000000000000000000000000000600052603260045260246000fd5b7f4e487b7100000000000000000000000000000000000000000000000000000000600052601160045260246000fd5b6000620017908262001013565b91507fffffffffffffffffffffffffffffffffffffffffffffffffffffffffffffffff8203620017c557620017c462001754565b5b600182019050919050565b7f54656b612d74656b6920746964616b20646974656d756b616e00000000000000600082015250565b60006200180860198362001248565b91506200181582620017d0565b602082019050919050565b600060208201905081810360008301526200183b81620017f9565b9050919050565b6200184d81620010ae565b81146200185957600080fd5b50565b6000815190506200186d8162001842565b92915050565b6000602082840312156200188c576200188b62000dc0565b5b60006200189c848285016200185c565b91505092915050565b600081519050620018b6816200104b565b92915050565b600060208284031215620018d557620018d462000dc0565b5b6000620018e584828501620018a5565b91505092915050565b600081519050620018ff81620010e8565b92915050565b6000602082840312156200191e576200191d62000dc0565b5b60006200192e84828501620018ee565b91505092915050565b6000620019448262001013565b9150620019518362001013565b92508282019050808211156200196c576200196b62001754565b5b9291505056fe60806040523480156200001157600080fd5b50604051620016ef380380620016ef8339818101604052810190620000379190620003fb565b80600073ffffffffffffffffffffffffffffffffffffffff168173ffffffffffffffffffffffffffffffffffffffff1603620000ad5760006040517f1e4fbdf7000000000000000000000000000000000000000000000000000000008152600401620000a4919062000487565b60405180910390fd5b620000be816200010460201b60201c565b508260019081620000d09190620006ef565b508160028190555060006004819055506000600560006101000a81548160ff021916908315150217905550505050620007d6565b60008060009054906101000a900473ffffffffffffffffffffffffffffffffffffffff169050816000806101000a81548173ffffffffffffffffffffffffffffffffffffffff021916908373ffffffffffffffffffffffffffffffffffffffff1602179055508173ffffffffffffffffffffffffffffffffffffffff168173ffffffffffffffffffffffffffffffffffffffff167f8be0079c531659141344cd1fd0a4f28419497f9722a3daafe3b4186f6b6457e060405160405180910390a35050565b6000604051905090565b600080fd5b600080fd5b600080fd5b600080fd5b6000601f19601f8301169050919050565b7f4e487b7100000000000000000000000000000000000000000000000000000000600052604160045260246000fd5b6200023182620001e6565b810181811067ffffffffffffffff82111715620002535762000252620001f7565b5b80604052505050565b600062000268620001c8565b905062000276828262000226565b919050565b600067ffffffffffffffff821115620002995762000298620001f7565b5b620002a482620001e6565b9050602081019050919050565b60005b83811015620002d1578082015181840152602081019050620002b4565b60008484015250505050565b6000620002f4620002ee846200027b565b6200025c565b905082815260208101848484011115620003135762000312620001e1565b5b62000320848285620002b1565b509392505050565b600082601f83011262000340576200033f620001dc565b5b815162000352848260208601620002dd565b91505092915050565b6000819050919050565b62000370816200035b565b81146200037c57600080fd5b50565b600081519050620003908162000365565b92915050565b600073ffffffffffffffffffffffffffffffffffffffff82169050919050565b6000620003c38262000396565b9050919050565b620003d581620003b6565b8114620003e157600080fd5b50565b600081519050620003f581620003ca565b92915050565b600080600060608486031215620004175762000416620001d2565b5b600084015167ffffffffffffffff811115620004385762000437620001d7565b5b620004468682870162000328565b935050602062000459868287016200037f565b92505060406200046c86828701620003e4565b9150509250925092565b6200048181620003b6565b82525050565b60006020820190506200049e600083018462000476565b92915050565b600081519050919050565b7f4e487b7100000000000000000000000000000000000000000000000000000000600052602260045260246000fd5b60006002820490506001821680620004f757607f821691505b6020821081036200050d576200050c620004af565b5b50919050565b60008190508160005260206000209050919050565b60006020601f8301049050919050565b600082821b905092915050565b600060088302620005777fffffffffffffffffffffffffffffffffffffffffffffffffffffffffffffffff8262000538565b62000583868362000538565b95508019841693508086168417925050509392505050565b6000819050919050565b6000819050919050565b6000620005d0620005ca620005c4846200059b565b620005a5565b6200059b565b9050919050565b6000819050919050565b620005ec83620005af565b62000604620005fb82620005d7565b84845462000545565b825550505050565b600090565b6200061b6200060c565b62000628818484620005e1565b505050565b5b8181101562000650576200064460008262000611565b6001810190506200062e565b5050565b601f8211156200069f57620006698162000513565b620006748462000528565b8101602085101562000684578190505b6200069c620006938562000528565b8301826200062d565b50505b505050565b600082821c905092915050565b6000620006c460001984600802620006a4565b1980831691505092915050565b6000620006df8383620006b1565b9150826002028217905092915050565b620006fa82620004a4565b67ffffffffffffffff811115620007165762000715620001f7565b5b620007228254620004de565b6200072f82828562000654565b600060209050601f83116001811462000767576000841562000752578287015190505b6200075e8582620006d1565b865550620007ce565b601f198416620007778662000513565b60005b82811015620007a1578489015182556001820191506020850194506020810190506200077a565b86831015620007c15784890151620007bd601f891682620006b1565b8355505b6001600288020188555050505b505050505050565b610f0980620007e66000396000f3fe6080604052600436106100915760003560e01c806376fe1e921161005957806376fe1e92146101595780638da5cb5b14610182578063b52bd9c6146101ad578063e59a58ee146101ea578063f2fde38b146101f457610091565b8063228cb733146100965780633853ae5c146100c157806349a7a26d146100ec57806364d98f6e14610117578063715018a614610142575b600080fd5b3480156100a257600080fd5b506100ab61021d565b6040516100b8919061082e565b60405180910390f35b3480156100cd57600080fd5b506100d6610223565b6040516100e391906108d9565b60405180910390f35b3480156100f857600080fd5b506101016102b1565b60405161010e919061093c565b60405180910390f35b34801561012357600080fd5b5061012c6102d7565b6040516101399190610972565b60405180910390f35b34801561014e57600080fd5b506101576102ea565b005b34801561016557600080fd5b50610180600480360381019061017b9190610ad6565b6102fe565b005b34801561018e57600080fd5b5061019761056f565b6040516101a4919061093c565b60405180910390f35b3480156101b957600080fd5b506101d460048036038101906101cf9190610ad6565b610598565b6040516101e19190610972565b60405180910390f35b6101f26105d1565b005b34801561020057600080fd5b5061021b60048036038101906102169190610b4b565b61063c565b005b60045481565b6001805461023090610ba7565b80601f016020809104026020016040519081016040528092919081815260200182805461025c90610ba7565b80156102a95780601f1061027e576101008083540402835291602001916102a9565b820191906000526020600020905b81548152906001019060200180831161028c57829003601f168201915b505050505081565b600360009054906101000a900473ffffffffffffffffffffffffffffffffffffffff1681565b600560009054906101000a900460ff1681565b6102f26106c2565b6102fc6000610749565b565b600560009054906101000a900460ff161561034e576040517f08c379a000000000000000000000000000000000000000000000000000000000815260040161034590610c24565b60405180910390fd5b600060045411610393576040517f08c379a000000000000000000000000000000000000000000000000000000000815260040161038a90610cb6565b60405180910390fd5b6000816040516020016103a69190610d12565b6040516020818303038152906040528051906020012090506002548114610402576040517f08c379a00000000000000000000000000000000000000000000000000000000081526004016103f990610d75565b60405180910390fd5b6001600560006101000a81548160ff02191690831515021790555033600360006101000a81548173ffffffffffffffffffffffffffffffffffffffff021916908373ffffffffffffffffffffffffffffffffffffffff1602179055506000600454905060006004819055503373ffffffffffffffffffffffffffffffffffffffff167fc89da2a4f1b48d1a11f5353dfceb97ded7a000cde43aff7c6207bdaf735fc68582426040516104b5929190610d95565b60405180910390a260003373ffffffffffffffffffffffffffffffffffffffff16826040516104e390610def565b60006040518083038185875af1925050503d8060008114610520576040519150601f19603f3d011682016040523d82523d6000602084013e610525565b606091505b5050905080610569576040517f08c379a000000000000000000000000000000000000000000000000000000000815260040161056090610e50565b60405180910390fd5b50505050565b60008060009054906101000a900473ffffffffffffffffffffffffffffffffffffffff16905090565b600080826040516020016105ac9190610d12565b6040516020818303038152906040528051906020012090506002548114915050919050565b600560009054906101000a900460ff1615610621576040517f08c379a000000000000000000000000000000000000000000000000000000000815260040161061890610c24565b60405180910390fd5b34600460008282546106339190610e9f565b92505081905550565b6106446106c2565b600073ffffffffffffffffffffffffffffffffffffffff168173ffffffffffffffffffffffffffffffffffffffff16036106b65760006040517f1e4fbdf70000000000000000000000000000000000000000000000000000000081526004016106ad919061093c565b60405180910390fd5b6106bf81610749565b50565b6106ca61080d565b73ffffffffffffffffffffffffffffffffffffffff166106e861056f565b73ffffffffffffffffffffffffffffffffffffffff16146107475761070b61080d565b6040517f118cdaa700000000000000000000000000000000000000000000000000000000815260040161073e919061093c565b60405180910390fd5b565b60008060009054906101000a900473ffffffffffffffffffffffffffffffffffffffff169050816000806101000a81548173ffffffffffffffffffffffffffffffffffffffff021916908373ffffffffffffffffffffffffffffffffffffffff1602179055508173ffffffffffffffffffffffffffffffffffffffff168173ffffffffffffffffffffffffffffffffffffffff167f8be0079c531659141344cd1fd0a4f28419497f9722a3daafe3b4186f6b6457e060405160405180910390a35050565b600033905090565b6000819050919050565b61082881610815565b82525050565b6000602082019050610843600083018461081f565b92915050565b600081519050919050565b600082825260208201905092915050565b60005b83811015610883578082015181840152602081019050610868565b60008484015250505050565b6000601f19601f8301169050919050565b60006108ab82610849565b6108b58185610854565b93506108c5818560208601610865565b6108ce8161088f565b840191505092915050565b600060208201905081810360008301526108f381846108a0565b905092915050565b600073ffffffffffffffffffffffffffffffffffffffff82169050919050565b6000610926826108fb565b9050919050565b6109368161091b565b82525050565b6000602082019050610951600083018461092d565b92915050565b60008115159050919050565b61096c81610957565b82525050565b60006020820190506109876000830184610963565b92915050565b6000604051905090565b600080fd5b600080fd5b600080fd5b600080fd5b7f4e487b7100000000000000000000000000000000000000000000000000000000600052604160045260246000fd5b6109e38261088f565b810181811067ffffffffffffffff82111715610a0257610a016109ab565b5b80604052505050565b6000610a1561098d565b9050610a2182826109da565b919050565b600067ffffffffffffffff821115610a4157610a406109ab565b5b610a4a8261088f565b9050602081019050919050565b82818337600083830152505050565b6000610a79610a7484610a26565b610a0b565b905082815260208101848484011115610a9557610a946109a6565b5b610aa0848285610a57565b509392505050565b600082601f830112610abd57610abc6109a1565b5b8135610acd848260208601610a66565b91505092915050565b600060208284031215610aec57610aeb610997565b5b600082013567ffffffffffffffff811115610b0a57610b0961099c565b5b610b1684828501610aa8565b91505092915050565b610b288161091b565b8114610b3357600080fd5b50565b600081359050610b4581610b1f565b92915050565b600060208284031215610b6157610b60610997565b5b6000610b6f84828501610b36565b91505092915050565b7f4e487b7100000000000000000000000000000000000000000000000000000000600052602260045260246000fd5b60006002820490506001821680610bbf57607f821691505b602082108103610bd257610bd1610b78565b5b50919050565b7f54656b612d74656b692073756461682074657270656361686b616e0000000000600082015250565b6000610c0e601b83610854565b9150610c1982610bd8565b602082019050919050565b60006020820190508181036000830152610c3d81610c01565b9050919050565b7f546964616b206164612068616469616820756e74756b2074656b612d74656b6960008201527f20696e6900000000000000000000000000000000000000000000000000000000602082015250565b6000610ca0602483610854565b9150610cab82610c44565b604082019050919050565b60006020820190508181036000830152610ccf81610c93565b9050919050565b600081905092915050565b6000610cec82610849565b610cf68185610cd6565b9350610d06818560208601610865565b80840191505092915050565b6000610d1e8284610ce1565b915081905092915050565b7f4a61776162616e2073616c616800000000000000000000000000000000000000600082015250565b6000610d5f600d83610854565b9150610d6a82610d29565b602082019050919050565b60006020820190508181036000830152610d8e81610d52565b9050919050565b6000604082019050610daa600083018561081f565b610db7602083018461081f565b9392505050565b600081905092915050565b50565b6000610dd9600083610dbe565b9150610de482610dc9565b600082019050919050565b6000610dfa82610dcc565b9150819050919050565b7f476167616c206d656e676972696d206861646961680000000000000000000000600082015250565b6000610e3a601583610854565b9150610e4582610e04565b602082019050919050565b60006020820190508181036000830152610e6981610e2d565b9050919050565b7f4e487b7100000000000000000000000000000000000000000000000000000000600052601160045260246000fd5b6000610eaa82610815565b9150610eb583610815565b9250828201905080821115610ecd57610ecc610e70565b5b9291505056fea2646970667358221220c5951afdb8c5b3c7e70f5e48d1a64776846a9d24e29985126c7409011e30d60764736f6c63430008140033a26469706673582212200c2aab5e435a1304c8042f65f38317b9a914c361be9e65a2c6a5ed2d9aea140c64736f6c63430008140033",
  "linkReferences": {},
  "deployedLinkReferences": {}
}